{
  "_format": "hh-sol-artifact-1",
  "contractName": "GameeVouchersV2",
  "sourceName": "contracts/solc-0.6/token/ERC1155/GameeVouchersV2.sol",
  "abi": [
    {
      "anonymous": false,
      "inputs": [
        {
          "indexed": true,
          "internalType": "address",
          "name": "_owner",
          "type": "address"
        },
        {
          "indexed": true,
          "internalType": "address",
          "name": "_operator",
          "type": "address"
        },
        {
          "indexed": false,
          "internalType": "bool",
          "name": "_approved",
          "type": "bool"
        }
      ],
      "name": "ApprovalForAll",
      "type": "event"
    },
    {
      "anonymous": false,
      "inputs": [
        {
          "indexed": false,
          "internalType": "string",
          "name": "baseMetadataURI",
          "type": "string"
        }
      ],
      "name": "BaseMetadataURISet",
      "type": "event"
    },
    {
      "anonymous": false,
      "inputs": [
        {
          "indexed": true,
          "internalType": "uint256",
          "name": "collectionId",
          "type": "uint256"
        },
        {
          "indexed": true,
          "internalType": "bool",
          "name": "fungible",
          "type": "bool"
        }
      ],
      "name": "CollectionCreated",
      "type": "event"
    },
    {
      "anonymous": false,
      "inputs": [
        {
          "indexed": true,
          "internalType": "address",
          "name": "account",
          "type": "address"
        }
      ],
      "name": "MinterAdded",
      "type": "event"
    },
    {
      "anonymous": false,
      "inputs": [
        {
          "indexed": true,
          "internalType": "address",
          "name": "account",
          "type": "address"
        }
      ],
      "name": "MinterRemoved",
      "type": "event"
    },
    {
      "anonymous": false,
      "inputs": [
        {
          "indexed": true,
          "internalType": "address",
          "name": "previousOwner",
          "type": "address"
        },
        {
          "indexed": true,
          "internalType": "address",
          "name": "newOwner",
          "type": "address"
        }
      ],
      "name": "OwnershipTransferred",
      "type": "event"
    },
    {
      "anonymous": false,
      "inputs": [
        {
          "indexed": true,
          "internalType": "bytes32",
          "name": "role",
          "type": "bytes32"
        },
        {
          "indexed": true,
          "internalType": "bytes32",
          "name": "previousAdminRole",
          "type": "bytes32"
        },
        {
          "indexed": true,
          "internalType": "bytes32",
          "name": "newAdminRole",
          "type": "bytes32"
        }
      ],
      "name": "RoleAdminChanged",
      "type": "event"
    },
    {
      "anonymous": false,
      "inputs": [
        {
          "indexed": true,
          "internalType": "bytes32",
          "name": "role",
          "type": "bytes32"
        },
        {
          "indexed": true,
          "internalType": "address",
          "name": "account",
          "type": "address"
        },
        {
          "indexed": true,
          "internalType": "address",
          "name": "sender",
          "type": "address"
        }
      ],
      "name": "RoleGranted",
      "type": "event"
    },
    {
      "anonymous": false,
      "inputs": [
        {
          "indexed": true,
          "internalType": "bytes32",
          "name": "role",
          "type": "bytes32"
        },
        {
          "indexed": true,
          "internalType": "address",
          "name": "account",
          "type": "address"
        },
        {
          "indexed": true,
          "internalType": "address",
          "name": "sender",
          "type": "address"
        }
      ],
      "name": "RoleRevoked",
      "type": "event"
    },
    {
      "anonymous": false,
      "inputs": [
        {
          "indexed": true,
          "internalType": "address",
          "name": "_operator",
          "type": "address"
        },
        {
          "indexed": true,
          "internalType": "address",
          "name": "_from",
          "type": "address"
        },
        {
          "indexed": true,
          "internalType": "address",
          "name": "_to",
          "type": "address"
        },
        {
          "indexed": false,
          "internalType": "uint256[]",
          "name": "_ids",
          "type": "uint256[]"
        },
        {
          "indexed": false,
          "internalType": "uint256[]",
          "name": "_values",
          "type": "uint256[]"
        }
      ],
      "name": "TransferBatch",
      "type": "event"
    },
    {
      "anonymous": false,
      "inputs": [
        {
          "indexed": true,
          "internalType": "address",
          "name": "_operator",
          "type": "address"
        },
        {
          "indexed": true,
          "internalType": "address",
          "name": "_from",
          "type": "address"
        },
        {
          "indexed": true,
          "internalType": "address",
          "name": "_to",
          "type": "address"
        },
        {
          "indexed": false,
          "internalType": "uint256",
          "name": "_id",
          "type": "uint256"
        },
        {
          "indexed": false,
          "internalType": "uint256",
          "name": "_value",
          "type": "uint256"
        }
      ],
      "name": "TransferSingle",
      "type": "event"
    },
    {
      "anonymous": false,
      "inputs": [
        {
          "indexed": false,
          "internalType": "string",
          "name": "_value",
          "type": "string"
        },
        {
          "indexed": true,
          "internalType": "uint256",
          "name": "_id",
          "type": "uint256"
        }
      ],
      "name": "URI",
      "type": "event"
    },
    {
      "inputs": [],
      "name": "DEFAULT_ADMIN_ROLE",
      "outputs": [
        {
          "internalType": "bytes32",
          "name": "",
          "type": "bytes32"
        }
      ],
      "stateMutability": "view",
      "type": "function"
    },
    {
      "inputs": [
        {
          "internalType": "address",
          "name": "account",
          "type": "address"
        }
      ],
      "name": "addMinter",
      "outputs": [],
      "stateMutability": "nonpayable",
      "type": "function"
    },
    {
      "inputs": [
        {
          "internalType": "address",
          "name": "owner",
          "type": "address"
        },
        {
          "internalType": "uint256",
          "name": "id",
          "type": "uint256"
        }
      ],
      "name": "balanceOf",
      "outputs": [
        {
          "internalType": "uint256",
          "name": "",
          "type": "uint256"
        }
      ],
      "stateMutability": "view",
      "type": "function"
    },
    {
      "inputs": [
        {
          "internalType": "address[]",
          "name": "owners",
          "type": "address[]"
        },
        {
          "internalType": "uint256[]",
          "name": "ids",
          "type": "uint256[]"
        }
      ],
      "name": "balanceOfBatch",
      "outputs": [
        {
          "internalType": "uint256[]",
          "name": "",
          "type": "uint256[]"
        }
      ],
      "stateMutability": "view",
      "type": "function"
    },
    {
      "inputs": [],
      "name": "baseMetadataURI",
      "outputs": [
        {
          "internalType": "string",
          "name": "",
          "type": "string"
        }
      ],
      "stateMutability": "view",
      "type": "function"
    },
    {
      "inputs": [
        {
          "internalType": "address",
          "name": "from",
          "type": "address"
        },
        {
          "internalType": "uint256[]",
          "name": "ids",
          "type": "uint256[]"
        },
        {
          "internalType": "uint256[]",
          "name": "values",
          "type": "uint256[]"
        }
      ],
      "name": "batchBurnFrom",
      "outputs": [],
      "stateMutability": "nonpayable",
      "type": "function"
    },
    {
      "inputs": [
        {
          "internalType": "address",
          "name": "from",
          "type": "address"
        },
        {
          "internalType": "uint256",
          "name": "id",
          "type": "uint256"
        },
        {
          "internalType": "uint256",
          "name": "value",
          "type": "uint256"
        }
      ],
      "name": "burnFrom",
      "outputs": [],
      "stateMutability": "nonpayable",
      "type": "function"
    },
    {
      "inputs": [
        {
          "internalType": "uint256",
          "name": "nftId",
          "type": "uint256"
        }
      ],
      "name": "collectionOf",
      "outputs": [
        {
          "internalType": "uint256",
          "name": "",
          "type": "uint256"
        }
      ],
      "stateMutability": "pure",
      "type": "function"
    },
    {
      "inputs": [
        {
          "internalType": "uint256",
          "name": "collectionId",
          "type": "uint256"
        }
      ],
      "name": "createCollection",
      "outputs": [],
      "stateMutability": "nonpayable",
      "type": "function"
    },
    {
      "inputs": [
        {
          "internalType": "uint256",
          "name": "collectionId",
          "type": "uint256"
        }
      ],
      "name": "creator",
      "outputs": [
        {
          "internalType": "address",
          "name": "",
          "type": "address"
        }
      ],
      "stateMutability": "view",
      "type": "function"
    },
    {
      "inputs": [
        {
          "internalType": "bytes32",
          "name": "role",
          "type": "bytes32"
        }
      ],
      "name": "getRoleAdmin",
      "outputs": [
        {
          "internalType": "bytes32",
          "name": "",
          "type": "bytes32"
        }
      ],
      "stateMutability": "view",
      "type": "function"
    },
    {
      "inputs": [
        {
          "internalType": "bytes32",
          "name": "role",
          "type": "bytes32"
        },
        {
          "internalType": "uint256",
          "name": "index",
          "type": "uint256"
        }
      ],
      "name": "getRoleMember",
      "outputs": [
        {
          "internalType": "address",
          "name": "",
          "type": "address"
        }
      ],
      "stateMutability": "view",
      "type": "function"
    },
    {
      "inputs": [
        {
          "internalType": "bytes32",
          "name": "role",
          "type": "bytes32"
        }
      ],
      "name": "getRoleMemberCount",
      "outputs": [
        {
          "internalType": "uint256",
          "name": "",
          "type": "uint256"
        }
      ],
      "stateMutability": "view",
      "type": "function"
    },
    {
      "inputs": [
        {
          "internalType": "bytes32",
          "name": "role",
          "type": "bytes32"
        },
        {
          "internalType": "address",
          "name": "account",
          "type": "address"
        }
      ],
      "name": "grantRole",
      "outputs": [],
      "stateMutability": "nonpayable",
      "type": "function"
    },
    {
      "inputs": [
        {
          "internalType": "bytes32",
          "name": "role",
          "type": "bytes32"
        },
        {
          "internalType": "address",
          "name": "account",
          "type": "address"
        }
      ],
      "name": "hasRole",
      "outputs": [
        {
          "internalType": "bool",
          "name": "",
          "type": "bool"
        }
      ],
      "stateMutability": "view",
      "type": "function"
    },
    {
      "inputs": [
        {
          "internalType": "address",
          "name": "tokenOwner",
          "type": "address"
        },
        {
          "internalType": "address",
          "name": "operator",
          "type": "address"
        }
      ],
      "name": "isApprovedForAll",
      "outputs": [
        {
          "internalType": "bool",
          "name": "",
          "type": "bool"
        }
      ],
      "stateMutability": "view",
      "type": "function"
    },
    {
      "inputs": [
        {
          "internalType": "uint256",
          "name": "id",
          "type": "uint256"
        }
      ],
      "name": "isFungible",
      "outputs": [
        {
          "internalType": "bool",
          "name": "",
          "type": "bool"
        }
      ],
      "stateMutability": "pure",
      "type": "function"
    },
    {
      "inputs": [
        {
          "internalType": "address",
          "name": "account",
          "type": "address"
        }
      ],
      "name": "isMinter",
      "outputs": [
        {
          "internalType": "bool",
          "name": "",
          "type": "bool"
        }
      ],
      "stateMutability": "view",
      "type": "function"
    },
    {
      "inputs": [],
      "name": "name",
      "outputs": [
        {
          "internalType": "string",
          "name": "",
          "type": "string"
        }
      ],
      "stateMutability": "view",
      "type": "function"
    },
    {
      "inputs": [],
      "name": "owner",
      "outputs": [
        {
          "internalType": "address",
          "name": "",
          "type": "address"
        }
      ],
      "stateMutability": "view",
      "type": "function"
    },
    {
      "inputs": [
        {
          "internalType": "uint256",
          "name": "nftId",
          "type": "uint256"
        }
      ],
      "name": "ownerOf",
      "outputs": [
        {
          "internalType": "address",
          "name": "",
          "type": "address"
        }
      ],
      "stateMutability": "view",
      "type": "function"
    },
    {
      "inputs": [],
      "name": "renounceMinter",
      "outputs": [],
      "stateMutability": "nonpayable",
      "type": "function"
    },
    {
      "inputs": [],
      "name": "renounceOwnership",
      "outputs": [],
      "stateMutability": "nonpayable",
      "type": "function"
    },
    {
      "inputs": [
        {
          "internalType": "bytes32",
          "name": "role",
          "type": "bytes32"
        },
        {
          "internalType": "address",
          "name": "account",
          "type": "address"
        }
      ],
      "name": "renounceRole",
      "outputs": [],
      "stateMutability": "nonpayable",
      "type": "function"
    },
    {
      "inputs": [
        {
          "internalType": "bytes32",
          "name": "role",
          "type": "bytes32"
        },
        {
          "internalType": "address",
          "name": "account",
          "type": "address"
        }
      ],
      "name": "revokeRole",
      "outputs": [],
      "stateMutability": "nonpayable",
      "type": "function"
    },
    {
      "inputs": [
        {
          "internalType": "address",
          "name": "to",
          "type": "address"
        },
        {
          "internalType": "uint256[]",
          "name": "ids",
          "type": "uint256[]"
        },
        {
          "internalType": "uint256[]",
          "name": "values",
          "type": "uint256[]"
        },
        {
          "internalType": "bytes",
          "name": "data",
          "type": "bytes"
        }
      ],
      "name": "safeBatchMint",
      "outputs": [],
      "stateMutability": "nonpayable",
      "type": "function"
    },
    {
      "inputs": [
        {
          "internalType": "address",
          "name": "from",
          "type": "address"
        },
        {
          "internalType": "address",
          "name": "to",
          "type": "address"
        },
        {
          "internalType": "uint256[]",
          "name": "ids",
          "type": "uint256[]"
        },
        {
          "internalType": "uint256[]",
          "name": "values",
          "type": "uint256[]"
        },
        {
          "internalType": "bytes",
          "name": "data",
          "type": "bytes"
        }
      ],
      "name": "safeBatchTransferFrom",
      "outputs": [],
      "stateMutability": "nonpayable",
      "type": "function"
    },
    {
      "inputs": [
        {
          "internalType": "address",
          "name": "to",
          "type": "address"
        },
        {
          "internalType": "uint256",
          "name": "id",
          "type": "uint256"
        },
        {
          "internalType": "uint256",
          "name": "value",
          "type": "uint256"
        },
        {
          "internalType": "bytes",
          "name": "data",
          "type": "bytes"
        }
      ],
      "name": "safeMint",
      "outputs": [],
      "stateMutability": "nonpayable",
      "type": "function"
    },
    {
      "inputs": [
        {
          "internalType": "address",
          "name": "from",
          "type": "address"
        },
        {
          "internalType": "address",
          "name": "to",
          "type": "address"
        },
        {
          "internalType": "uint256",
          "name": "id",
          "type": "uint256"
        },
        {
          "internalType": "uint256",
          "name": "value",
          "type": "uint256"
        },
        {
          "internalType": "bytes",
          "name": "data",
          "type": "bytes"
        }
      ],
      "name": "safeTransferFrom",
      "outputs": [],
      "stateMutability": "nonpayable",
      "type": "function"
    },
    {
      "inputs": [
        {
          "internalType": "address",
          "name": "operator",
          "type": "address"
        },
        {
          "internalType": "bool",
          "name": "approved",
          "type": "bool"
        }
      ],
      "name": "setApprovalForAll",
      "outputs": [],
      "stateMutability": "nonpayable",
      "type": "function"
    },
    {
      "inputs": [
        {
          "internalType": "string",
          "name": "baseMetadataURI_",
          "type": "string"
        }
      ],
      "name": "setBaseMetadataURI",
      "outputs": [],
      "stateMutability": "nonpayable",
      "type": "function"
    },
    {
      "inputs": [
        {
          "internalType": "bytes4",
          "name": "interfaceId",
          "type": "bytes4"
        }
      ],
      "name": "supportsInterface",
      "outputs": [
        {
          "internalType": "bool",
          "name": "",
          "type": "bool"
        }
      ],
      "stateMutability": "view",
      "type": "function"
    },
    {
      "inputs": [],
      "name": "symbol",
      "outputs": [
        {
          "internalType": "string",
          "name": "",
          "type": "string"
        }
      ],
      "stateMutability": "view",
      "type": "function"
    },
    {
      "inputs": [
        {
          "internalType": "uint256",
          "name": "id",
          "type": "uint256"
        }
      ],
      "name": "totalSupply",
      "outputs": [
        {
          "internalType": "uint256",
          "name": "",
          "type": "uint256"
        }
      ],
      "stateMutability": "view",
      "type": "function"
    },
    {
      "inputs": [
        {
          "internalType": "address",
          "name": "newOwner",
          "type": "address"
        }
      ],
      "name": "transferOwnership",
      "outputs": [],
      "stateMutability": "nonpayable",
      "type": "function"
    },
    {
      "inputs": [
        {
          "internalType": "uint256",
          "name": "id",
          "type": "uint256"
        }
      ],
      "name": "uri",
      "outputs": [
        {
          "internalType": "string",
          "name": "",
          "type": "string"
        }
      ],
      "stateMutability": "view",
      "type": "function"
    }
  ],
  "bytecode": "0x60806040523480156200001157600080fd5b506000620000276001600160e01b03620000eb16565b600580546001600160a01b0319166001600160a01b038316908117909155604051919250906000907f8be0079c531659141344cd1fd0a4f28419497f9722a3daafe3b4186f6b6457e0908290a3506200009d60006200008e6001600160e01b03620000eb16565b6001600160e01b03620000ef16565b620000b06001600160e01b03620000eb16565b6001600160a01b03167f6ae172837ea30b801fbfcdd4108aa1d5bf8ff775444fd70256b44e6bf3dfc3f660405160405180910390a262000225565b3390565b6200010482826001600160e01b036200010816565b5050565b60008281526007602090815260409091206200012f9183906200227e6200018c821b17901c565b156200010457620001486001600160e01b03620000eb16565b6001600160a01b0316816001600160a01b0316837f2f8788117e7eff1d82e926ec794901d17c78024a50270940304540a733656f0d60405160405180910390a45050565b6000620001ac836001600160a01b0384166001600160e01b03620001b516565b90505b92915050565b6000620001cc83836001600160e01b036200020d16565b6200020457508154600181810184556000848152602080822090930184905584548482528286019093526040902091909155620001af565b506000620001af565b60009081526001919091016020526040902054151590565b613cb780620002356000396000f3fe608060405234801561001057600080fd5b506004361061025b5760003560e01c80638da5cb5b11610145578063adebf6f2116100bd578063d0011d9d1161008c578063e985e9c511610071578063e985e9c514610d20578063f242432a14610d4e578063f2fde38b14610e195761025b565b8063d0011d9d14610cd7578063d547741f14610cf45761025b565b8063adebf6f214610c63578063bd85b03914610c80578063c7778baa14610c9d578063ca15c87314610cba5761025b565b8063983b2d5611610114578063a217fddf116100f9578063a217fddf14610c07578063a22cb46514610c0f578063aa271e1a14610c3d5761025b565b8063983b2d5614610bd95780639865027514610bff5761025b565b80638da5cb5b14610b825780639010d07c14610b8a57806391d1485414610bad57806395d89b41146102d95761025b565b806336568abe116101d85780635cfa9297116101a7578063715018a61161018c578063715018a6146109d35780637e518ec8146109db5780638053493414610a4b5761025b565b80635cfa9297146108f45780636352211e146109b65761025b565b806336568abe146107755780634e1273f4146107a1578063510b5158146108b35780635b2bd79e146108ec5761025b565b80630e89341c1161022f578063248a9ca311610214578063248a9ca3146105655780632eb2c2d6146105825780632f2ff15d146107495761025b565b80630e89341c14610516578063124d91e5146105335761025b565b8062fdd58e1461026057806301ffc9a71461029e57806306fdde03146102d95780630d6a5bbb14610356575b600080fd5b61028c6004803603604081101561027657600080fd5b506001600160a01b038135169060200135610e3f565b60408051918252519081900360200190f35b6102c5600480360360208110156102b457600080fd5b50356001600160e01b031916610f0a565b604080519115158252519081900360200190f35b6102e1610fdd565b6040805160208082528351818301528351919283929083019185019080838360005b8381101561031b578181015183820152602001610303565b50505050905090810190601f1680156103485780820380516001836020036101000a031916815260200191505b509250505060405180910390f35b6105146004803603608081101561036c57600080fd5b6001600160a01b03823516919081019060408101602082013564010000000081111561039757600080fd5b8201836020820111156103a957600080fd5b803590602001918460208302840111640100000000831117156103cb57600080fd5b919080806020026020016040519081016040528093929190818152602001838360200280828437600092019190915250929594936020810193503591505064010000000081111561041b57600080fd5b82018360208201111561042d57600080fd5b8035906020019184602083028401116401000000008311171561044f57600080fd5b919080806020026020016040519081016040528093929190818152602001838360200280828437600092019190915250929594936020810193503591505064010000000081111561049f57600080fd5b8201836020820111156104b157600080fd5b803590602001918460018302840111640100000000831117156104d357600080fd5b91908080601f016020809104026020016040519081016040528093929190818152602001838380828437600092019190915250929550611016945050505050565b005b6102e16004803603602081101561052c57600080fd5b503561110a565b6105146004803603606081101561054957600080fd5b506001600160a01b038135169060208101359060400135611115565b61028c6004803603602081101561057b57600080fd5b5035611266565b610514600480360360a081101561059857600080fd5b6001600160a01b0382358116926020810135909116918101906060810160408201356401000000008111156105cc57600080fd5b8201836020820111156105de57600080fd5b8035906020019184602083028401116401000000008311171561060057600080fd5b919080806020026020016040519081016040528093929190818152602001838360200280828437600092019190915250929594936020810193503591505064010000000081111561065057600080fd5b82018360208201111561066257600080fd5b8035906020019184602083028401116401000000008311171561068457600080fd5b91908080602002602001604051908101604052809392919081815260200183836020028082843760009201919091525092959493602081019350359150506401000000008111156106d457600080fd5b8201836020820111156106e657600080fd5b8035906020019184600183028401116401000000008311171561070857600080fd5b91908080601f01602080910402602001604051908101604052809392919081815260200183838082843760009201919091525092955061127b945050505050565b6105146004803603604081101561075f57600080fd5b50803590602001356001600160a01b031661128f565b6105146004803603604081101561078b57600080fd5b50803590602001356001600160a01b03166112fb565b610863600480360360408110156107b757600080fd5b8101906020810181356401000000008111156107d257600080fd5b8201836020820111156107e457600080fd5b8035906020019184602083028401116401000000008311171561080657600080fd5b91939092909160208101903564010000000081111561082457600080fd5b82018360208201111561083657600080fd5b8035906020019184602083028401116401000000008311171561085857600080fd5b50909250905061135c565b60408051602080825283518183015283519192839290830191858101910280838360005b8381101561089f578181015183820152602001610887565b505050509050019250505060405180910390f35b6108d0600480360360208110156108c957600080fd5b5035611462565b604080516001600160a01b039092168252519081900360200190f35b6102e161146d565b6105146004803603608081101561090a57600080fd5b6001600160a01b03823516916020810135916040820135919081019060808101606082013564010000000081111561094157600080fd5b82018360208201111561095357600080fd5b8035906020019184600183028401116401000000008311171561097557600080fd5b91908080601f0160208091040260200160405190810160405280939291908181526020018383808284376000920191909152509295506114fb945050505050565b6108d0600480360360208110156109cc57600080fd5b50356115bd565b610514611627565b610514600480360360208110156109f157600080fd5b810190602081018135640100000000811115610a0c57600080fd5b820183602082011115610a1e57600080fd5b80359060200191846001830284011164010000000083111715610a4057600080fd5b5090925090506116e8565b61051460048036036060811015610a6157600080fd5b6001600160a01b038235169190810190604081016020820135640100000000811115610a8c57600080fd5b820183602082011115610a9e57600080fd5b80359060200191846020830284011164010000000083111715610ac057600080fd5b9190808060200260200160405190810160405280939291908181526020018383602002808284376000920191909152509295949360208101935035915050640100000000811115610b1057600080fd5b820183602082011115610b2257600080fd5b80359060200191846020830284011164010000000083111715610b4457600080fd5b9190808060200260200160405190810160405280939291908181526020018383602002808284376000920191909152509295506117c3945050505050565b6108d0611ac5565b6108d060048036036040811015610ba057600080fd5b5080359060200135611ad5565b6102c560048036036040811015610bc357600080fd5b50803590602001356001600160a01b0316611afa565b61051460048036036020811015610bef57600080fd5b50356001600160a01b0316611b18565b610514611c11565b61028c611cbe565b61051460048036036040811015610c2557600080fd5b506001600160a01b0381351690602001351515611cc3565b6102c560048036036020811015610c5357600080fd5b50356001600160a01b0316611da2565b6102c560048036036020811015610c7957600080fd5b5035611dae565b61028c60048036036020811015610c9657600080fd5b5035611db9565b61028c60048036036020811015610cb357600080fd5b5035611e0f565b61028c60048036036020811015610cd057600080fd5b5035611e74565b61051460048036036020811015610ced57600080fd5b5035611e8b565b61051460048036036040811015610d0a57600080fd5b50803590602001356001600160a01b0316611f5b565b6102c560048036036040811015610d3657600080fd5b506001600160a01b0381358116916020013516611fb4565b610514600480360360a0811015610d6457600080fd5b6001600160a01b03823581169260208101359091169160408201359160608101359181019060a081016080820135640100000000811115610da457600080fd5b820183602082011115610db657600080fd5b80359060200191846001830284011164010000000083111715610dd857600080fd5b91908080601f016020809104026020016040519081016040528093929190818152602001838380828437600092019190915250929550611fe0945050505050565b61051460048036036020811015610e2f57600080fd5b50356001600160a01b0316612166565b60006001600160a01b038316610e9c576040805162461bcd60e51b815260206004820152601760248201527f496e76656e746f72793a207a65726f2061646472657373000000000000000000604482015290519081900360640190fd5b610ea582612293565b15610edf576000828152600360205260409020546001600160a01b03848116911614610ed2576000610ed5565b60015b60ff169050610f04565b5060008181526001602090815260408083206001600160a01b03861684529091529020545b92915050565b60006001600160e01b031982167f01ffc9a7000000000000000000000000000000000000000000000000000000001480610f6d57506001600160e01b031982167fd9b67a2600000000000000000000000000000000000000000000000000000000145b80610fa157506001600160e01b031982167f0e89341c00000000000000000000000000000000000000000000000000000000145b80610fd557506001600160e01b031982167fb44bec7f00000000000000000000000000000000000000000000000000000000145b90505b919050565b6040518060400160405280600d81526020017f47616d6565566f7563686572730000000000000000000000000000000000000081525081565b6110266110216122e5565b611da2565b611077576040805162461bcd60e51b815260206004820152601760248201527f496e76656e746f72793a206e6f742061206d696e746572000000000000000000604482015290519081900360640190fd5b60005b835181146110f75761109e84828151811061109157fe5b60200260200101516122e9565b6110ef576040805162461bcd60e51b815260206004820152601d60248201527f47616d6565566f7563686572733a206f6e6c792066756e6769626c6573000000604482015290519081900360640190fd5b60010161107a565b506111048484848461230f565b50505050565b6060610fd582612626565b600061111f6122e5565b905061112b84826126f9565b61117c576040805162461bcd60e51b815260206004820152601e60248201527f496e76656e746f72793a206e6f6e2d617070726f7665642073656e6465720000604482015290519081900360640190fd5b611185836122e9565b1561119a57611195848484612743565b611202565b6111a383612293565b156111b557611195848484600061284c565b6040805162461bcd60e51b815260206004820152601960248201527f496e76656e746f72793a206e6f74206120746f6b656e20696400000000000000604482015290519081900360640190fd5b60006001600160a01b0316846001600160a01b0316826001600160a01b03167fc3d58168c5ae7397731d063d5bbf3d657854427343f4c083240f7aacaa2d0f628686604051808381526020018281526020019250505060405180910390a450505050565b60009081526007602052604090206002015490565b6112888585858585612995565b5050505050565b6000828152600760205260409020600201546112b2906112ad6122e5565b611afa565b6112ed5760405162461bcd60e51b815260040180806020018281038252602f815260200180613bce602f913960400191505060405180910390fd5b6112f78282612c91565b5050565b6113036122e5565b6001600160a01b0316816001600160a01b0316146113525760405162461bcd60e51b815260040180806020018281038252602f815260200180613c53602f913960400191505060405180910390fd5b6112f78282612d00565b60608382146113b2576040805162461bcd60e51b815260206004820152601e60248201527f496e76656e746f72793a20696e636f6e73697374656e74206172726179730000604482015290519081900360640190fd5b60608467ffffffffffffffff811180156113cb57600080fd5b506040519080825280602002602001820160405280156113f5578160200160208202803683370190505b50905060005b8086146114585761143987878381811061141157fe5b905060200201356001600160a01b031686868481811061142d57fe5b90506020020135610e3f565b82828151811061144557fe5b60209081029190910101526001016113fb565b5095945050505050565b6000610fd582612d6f565b6006805460408051602060026001851615610100026000190190941693909304601f810184900484028201840190925281815292918301828280156114f35780601f106114c8576101008083540402835291602001916114f3565b820191906000526020600020905b8154815290600101906020018083116114d657829003601f168201915b505050505081565b6115066110216122e5565b611557576040805162461bcd60e51b815260206004820152601760248201527f496e76656e746f72793a206e6f742061206d696e746572000000000000000000604482015290519081900360640190fd5b611560836122e9565b6115b1576040805162461bcd60e51b815260206004820152601d60248201527f47616d6565566f7563686572733a206f6e6c792066756e6769626c6573000000604482015290519081900360640190fd5b61110484848484612de8565b6000818152600360205260408120546001600160a01b038116610fd5576040805162461bcd60e51b815260206004820152601b60248201527f496e76656e746f72793a206e6f6e2d6578697374696e67204e46540000000000604482015290519081900360640190fd5b61162f6122e5565b6005546001600160a01b03908116911614611691576040805162461bcd60e51b815260206004820181905260248201527f4f776e61626c653a2063616c6c6572206973206e6f7420746865206f776e6572604482015290519081900360640190fd5b6005546040516000916001600160a01b0316907f8be0079c531659141344cd1fd0a4f28419497f9722a3daafe3b4186f6b6457e0908390a36005805473ffffffffffffffffffffffffffffffffffffffff19169055565b6116f06122e5565b6005546001600160a01b03908116911614611752576040805162461bcd60e51b815260206004820181905260248201527f4f776e61626c653a2063616c6c6572206973206e6f7420746865206f776e6572604482015290519081900360640190fd5b61175e60068383613b13565b507f04b1dc5c136a3ce9fded8db0ce3d3366c58764ec3a8e4c2b9e52e4ddfe5ebbf7828260405180806020018281038252848482818152602001925080828437600083820152604051601f909101601f19169092018290039550909350505050a15050565b81518151811461181a576040805162461bcd60e51b815260206004820152601e60248201527f496e76656e746f72793a20696e636f6e73697374656e74206172726179730000604482015290519081900360640190fd5b60006118246122e5565b905061183085826126f9565b611881576040805162461bcd60e51b815260206004820152601e60248201527f496e76656e746f72793a206e6f6e2d617070726f7665642073656e6465720000604482015290519081900360640190fd5b60008060005b8481146119a057600087828151811061189c57fe5b6020026020010151905060008783815181106118b457fe5b602002602001015190506118c7826122e9565b156118dc576118d78a8383612743565b611996565b6118e582612293565b156111b5576118f78a8383600161284c565b600061190283612efd565b9050856119155780955060019450611994565b85811461198d57846001600088815260200190815260200160002060008d6001600160a01b03166001600160a01b031681526020019081526020016000206000828254039250508190555084600260008881526020019081526020016000206000828254039250508190555080955060019450611994565b8460010194505b505b5050600101611887565b5081156119e25760008281526001602090815260408083206001600160a01b038b16845282528083208054859003905584835260029091529020805482900390555b60006001600160a01b0316876001600160a01b0316846001600160a01b03167f4a39dc06d4c0dbc64b70af90fd698a233a518aa5d07e595d983b8c0526c8f7fb8989604051808060200180602001838103835285818151815260200191508051906020019060200280838360005b83811015611a68578181015183820152602001611a50565b50505050905001838103825284818151815260200191508051906020019060200280838360005b83811015611aa7578181015183820152602001611a8f565b5050505090500194505050505060405180910390a450505050505050565b6005546001600160a01b03165b90565b6000828152600760205260408120611af3908363ffffffff612f0a16565b9392505050565b6000828152600760205260408120611af3908363ffffffff612f1616565b611b236110216122e5565b611b74576040805162461bcd60e51b815260206004820152601860248201527f4d696e746572526f6c653a206e6f742061204d696e7465720000000000000000604482015290519081900360640190fd5b611b7d81611da2565b15611bcf576040805162461bcd60e51b815260206004820152601a60248201527f4d696e746572526f6c653a20616c7265616479204d696e746572000000000000604482015290519081900360640190fd5b611bda60008261128f565b6040516001600160a01b038216907f6ae172837ea30b801fbfcdd4108aa1d5bf8ff775444fd70256b44e6bf3dfc3f690600090a250565b611c1c6110216122e5565b611c6d576040805162461bcd60e51b815260206004820152601860248201527f4d696e746572526f6c653a206e6f742061204d696e7465720000000000000000604482015290519081900360640190fd5b611c7f6000611c7a6122e5565b6112fb565b611c876122e5565b6001600160a01b03167fe94479a9f7e1952cc78f2d6baab678adc1b772d936c6583def489e524cb6669260405160405180910390a2565b600081565b6000611ccd6122e5565b9050806001600160a01b0316836001600160a01b03161415611d36576040805162461bcd60e51b815260206004820152601860248201527f496e76656e746f72793a2073656c662d617070726f76616c0000000000000000604482015290519081900360640190fd5b6001600160a01b0381811660008181526020818152604080832094881680845294825291829020805460ff1916871515908117909155825190815291517f17307eab39ab6107e8899845ad3d59bd9653f200f220920489ca2b5937696c319281900390910190a3505050565b6000610fd58183611afa565b6000610fd5826122e9565b6000611dc482612293565b15611dfa576000828152600360205260409020546001600160a01b031615611ded576001611df0565b60005b60ff169050610fd8565b50600081815260026020526040902054610fd8565b6000611e1a82612293565b611e6b576040805162461bcd60e51b815260206004820152601560248201527f496e76656e746f72793a206e6f7420616e204e46540000000000000000000000604482015290519081900360640190fd5b610fd582612efd565b6000818152600760205260408120610fd590612f2b565b611e936122e5565b6005546001600160a01b03908116911614611ef5576040805162461bcd60e51b815260206004820181905260248201527f4f776e61626c653a2063616c6c6572206973206e6f7420746865206f776e6572604482015290519081900360640190fd5b611efe816122e9565b611f4f576040805162461bcd60e51b815260206004820152601d60248201527f47616d6565566f7563686572733a206f6e6c792066756e6769626c6573000000604482015290519081900360640190fd5b611f5881612f36565b50565b600082815260076020526040902060020154611f79906112ad6122e5565b6113525760405162461bcd60e51b8152600401808060200182810382526030815260200180613c236030913960400191505060405180910390fd5b6001600160a01b0391821660009081526020818152604080832093909416825291909152205460ff1690565b6000611fea6122e5565b90506001600160a01b038516612047576040805162461bcd60e51b815260206004820152601b60248201527f496e76656e746f72793a207472616e7366657220746f207a65726f0000000000604482015290519081900360640190fd5b61205186826126f9565b6120a2576040805162461bcd60e51b815260206004820152601e60248201527f496e76656e746f72793a206e6f6e2d617070726f7665642073656e6465720000604482015290519081900360640190fd5b6120ab846122e9565b156120c1576120bc86868686613077565b6120dd565b6120ca84612293565b156111b5576120bc868686866000613195565b846001600160a01b0316866001600160a01b0316826001600160a01b03167fc3d58168c5ae7397731d063d5bbf3d657854427343f4c083240f7aacaa2d0f628787604051808381526020018281526020019250505060405180910390a461214c856001600160a01b03166132c6565b1561215e5761215e86868686866132cc565b505050505050565b61216e6122e5565b6005546001600160a01b039081169116146121d0576040805162461bcd60e51b815260206004820181905260248201527f4f776e61626c653a2063616c6c6572206973206e6f7420746865206f776e6572604482015290519081900360640190fd5b6001600160a01b0381166122155760405162461bcd60e51b8152600401808060200182810382526026815260200180613bfd6026913960400191505060405180910390fd5b6005546040516001600160a01b038084169216907f8be0079c531659141344cd1fd0a4f28419497f9722a3daafe3b4186f6b6457e090600090a36005805473ffffffffffffffffffffffffffffffffffffffff19166001600160a01b0392909216919091179055565b6000611af3836001600160a01b038416613468565b60007f8000000000000000000000000000000000000000000000000000000000000000821615801590610fd55750507bffffffffffffffffffffffffffffffffffffffffffffffffffffffff16151590565b3390565b7f8000000000000000000000000000000000000000000000000000000000000000161590565b6001600160a01b03841661236a576040805162461bcd60e51b815260206004820152601b60248201527f496e76656e746f72793a207472616e7366657220746f207a65726f0000000000604482015290519081900360640190fd5b8251825181146123c1576040805162461bcd60e51b815260206004820152601e60248201527f496e76656e746f72793a20696e636f6e73697374656e74206172726179730000604482015290519081900360640190fd5b60008060005b8381146124e05760008782815181106123dc57fe5b6020026020010151905060008783815181106123f457fe5b60200260200101519050612407826122e9565b1561241c576124178a83836134b2565b6124d6565b61242582612293565b156111b5576124378a838360016135a4565b600061244283612efd565b90508561245557809550600194506124d4565b8581146124cd57846001600088815260200190815260200160002060008d6001600160a01b03166001600160a01b0316815260200190815260200160002060008282540192505081905550846002600088815260200190815260200160002060008282540192505081905550809550600194506124d4565b8460010194505b505b50506001016123c7565b5081156125205760008281526001602090815260408083206001600160a01b038b1684528252808320805485019055848352600290915290208054820190555b6001600160a01b03871660006125346122e5565b6001600160a01b03167f4a39dc06d4c0dbc64b70af90fd698a233a518aa5d07e595d983b8c0526c8f7fb8989604051808060200180602001838103835285818151815260200191508051906020019060200280838360005b838110156125a457818101518382015260200161258c565b50505050905001838103825284818151815260200191508051906020019060200280838360005b838110156125e35781810151838201526020016125cb565b5050505090500194505050505060405180910390a461260a876001600160a01b03166132c6565b1561261d5761261d6000888888886136c5565b50505050505050565b6060600661263383613855565b60405160200180838054600181600116156101000203166002900480156126915780601f1061266f576101008083540402835291820191612691565b820191906000526020600020905b81548152906001019060200180831161267d575b5050825160208401908083835b602083106126bd5780518252601f19909201916020918201910161269e565b6001836020036101000a038019825116818451168082178552505050505050905001925050506040516020818303038152906040529050919050565b6000816001600160a01b0316836001600160a01b03161480611af35750506001600160a01b0391821660009081526020818152604080832093909416825291909152205460ff1690565b80612795576040805162461bcd60e51b815260206004820152601560248201527f496e76656e746f72793a207a65726f2076616c75650000000000000000000000604482015290519081900360640190fd5b60008281526001602090815260408083206001600160a01b03871684529091529020548181101561280d576040805162461bcd60e51b815260206004820152601d60248201527f496e76656e746f72793a206e6f7420656e6f7567682062616c616e6365000000604482015290519081900360640190fd5b60008381526001602090815260408083206001600160a01b03909716835295815285822092849003909255928352600290529190208054919091039055565b816001146128a1576040805162461bcd60e51b815260206004820152601a60248201527f496e76656e746f72793a2077726f6e67204e46542076616c7565000000000000604482015290519081900360640190fd5b6000838152600360205260409020546001600160a01b0385811691161461290f576040805162461bcd60e51b815260206004820152601860248201527f496e76656e746f72793a206e6f6e2d6f776e6564204e46540000000000000000604482015290519081900360640190fd5b60008381526003602052604090207fdead00000000000000000000000000000000000000000000000000000000000090558061110457600061295084612efd565b60008181526001602090815260408083206001600160a01b038a1684528252808320805460001990810190915593835260029091529020805490910190555050505050565b6001600160a01b0384166129f0576040805162461bcd60e51b815260206004820152601b60248201527f496e76656e746f72793a207472616e7366657220746f207a65726f0000000000604482015290519081900360640190fd5b825182518114612a47576040805162461bcd60e51b815260206004820152601e60248201527f496e76656e746f72793a20696e636f6e73697374656e74206172726179730000604482015290519081900360640190fd5b6000612a516122e5565b9050612a5d87826126f9565b612aae576040805162461bcd60e51b815260206004820152601e60248201527f496e76656e746f72793a206e6f6e2d617070726f7665642073656e6465720000604482015290519081900360640190fd5b60008060005b848114612b76576000888281518110612ac957fe5b602002602001015190506000888381518110612ae157fe5b60200260200101519050612af4826122e9565b15612b0a57612b058c8c8484613077565b612b6c565b612b1382612293565b156111b557612b268c8c84846001613195565b6000612b3183612efd565b905085612b445780955060019450612b6a565b858114612b6357612b578d8d8888613964565b80955060019450612b6a565b8460010194505b505b5050600101612ab4565b508115612b8957612b8989898484613964565b876001600160a01b0316896001600160a01b0316846001600160a01b03167f4a39dc06d4c0dbc64b70af90fd698a233a518aa5d07e595d983b8c0526c8f7fb8a8a604051808060200180602001838103835285818151815260200191508051906020019060200280838360005b83811015612c0e578181015183820152602001612bf6565b50505050905001838103825284818151815260200191508051906020019060200280838360005b83811015612c4d578181015183820152602001612c35565b5050505090500194505050505060405180910390a4612c74886001600160a01b03166132c6565b15612c8657612c8689898989896136c5565b505050505050505050565b6000828152600760205260409020612caf908263ffffffff61227e16565b156112f757612cbc6122e5565b6001600160a01b0316816001600160a01b0316837f2f8788117e7eff1d82e926ec794901d17c78024a50270940304540a733656f0d60405160405180910390a45050565b6000828152600760205260409020612d1e908263ffffffff6139b816565b156112f757612d2b6122e5565b6001600160a01b0316816001600160a01b0316837ff6391f5c32d9c69d2a47ea670b442974b53935d1edc7fd64eb21e047a839171b60405160405180910390a45050565b6000612d7a82612293565b15612dcc576040805162461bcd60e51b815260206004820152601b60248201527f496e76656e746f72793a206e6f74206120636f6c6c656374696f6e0000000000604482015290519081900360640190fd5b506000908152600460205260409020546001600160a01b031690565b6001600160a01b038416612e43576040805162461bcd60e51b815260206004820152601b60248201527f496e76656e746f72793a207472616e7366657220746f207a65726f0000000000604482015290519081900360640190fd5b612e4c836122e9565b15612e6157612e5c8484846134b2565b612e7c565b612e6a83612293565b156111b557612e5c84848460006135a4565b6001600160a01b0384166000612e906122e5565b6001600160a01b03167fc3d58168c5ae7397731d063d5bbf3d657854427343f4c083240f7aacaa2d0f628686604051808381526020018281526020019250505060405180910390a4612eea846001600160a01b03166132c6565b15611104576111046000858585856132cc565b6001600160e01b03191690565b6000611af383836139cd565b6000611af3836001600160a01b038416613a31565b6000610fd582613a49565b612f3f81612293565b15612f91576040805162461bcd60e51b815260206004820152601b60248201527f496e76656e746f72793a206e6f74206120636f6c6c656374696f6e0000000000604482015290519081900360640190fd5b6000818152600460205260409020546001600160a01b031615612ffb576040805162461bcd60e51b815260206004820152601e60248201527f496e76656e746f72793a206578697374696e6720636f6c6c656374696f6e0000604482015290519081900360640190fd5b6130036122e5565b6000828152600460205260409020805473ffffffffffffffffffffffffffffffffffffffff19166001600160a01b0392909216919091179055613045816122e9565b1515817f4ebf8ad0df535ba5e487bc9cb27fe44120ca81c3a95d3eba79c0bd1df2ab2d5d60405160405180910390a350565b806130c9576040805162461bcd60e51b815260206004820152601560248201527f496e76656e746f72793a207a65726f2076616c75650000000000000000000000604482015290519081900360640190fd5b60008281526001602090815260408083206001600160a01b038816845290915290205481811015613141576040805162461bcd60e51b815260206004820152601d60248201527f496e76656e746f72793a206e6f7420656e6f7567682062616c616e6365000000604482015290519081900360640190fd5b836001600160a01b0316856001600160a01b0316146112885760009283526001602090815260408085206001600160a01b039788168652909152808420918390039091559290931681522080549091019055565b816001146131ea576040805162461bcd60e51b815260206004820152601a60248201527f496e76656e746f72793a2077726f6e67204e46542076616c7565000000000000604482015290519081900360640190fd5b6000838152600360205260409020546001600160a01b03868116911614613258576040805162461bcd60e51b815260206004820152601860248201527f496e76656e746f72793a206e6f6e2d6f776e6564204e46540000000000000000604482015290519081900360640190fd5b60008381526003602052604090206001600160a01b03851690558061128857600061328284612efd565b60009081526001602081815260408084206001600160a01b039a8b168552909152808320805460001901905596909716815294909420805490950190945550505050565b3b151590565b7ff23a6e61000000000000000000000000000000000000000000000000000000006001600160a01b03851663f23a6e616133046122e5565b888787876040518663ffffffff1660e01b815260040180866001600160a01b03166001600160a01b03168152602001856001600160a01b03166001600160a01b0316815260200184815260200183815260200180602001828103825283818151815260200191508051906020019080838360005b83811015613390578181015183820152602001613378565b50505050905090810190601f1680156133bd5780820380516001836020036101000a031916815260200191505b509650505050505050602060405180830381600087803b1580156133e057600080fd5b505af11580156133f4573d6000803e3d6000fd5b505050506040513d602081101561340a57600080fd5b50516001600160e01b03191614611288576040805162461bcd60e51b815260206004820152601b60248201527f496e76656e746f72793a207472616e7366657220726566757365640000000000604482015290519081900360640190fd5b60006134748383613a31565b6134aa57508154600181810184556000848152602080822090930184905584548482528286019093526040902091909155610f04565b506000610f04565b80613504576040805162461bcd60e51b815260206004820152601560248201527f496e76656e746f72793a207a65726f2076616c75650000000000000000000000604482015290519081900360640190fd5b60008281526002602052604090205481810181811161356a576040805162461bcd60e51b815260206004820152601a60248201527f496e76656e746f72793a20737570706c79206f766572666c6f77000000000000604482015290519081900360640190fd5b600093845260026020908152604080862092909255600181528185206001600160a01b039096168552949094525091902080549091019055565b816001146135f9576040805162461bcd60e51b815260206004820152601a60248201527f496e76656e746f72793a2077726f6e67204e46542076616c7565000000000000604482015290519081900360640190fd5b6000838152600360205260409020541561365a576040805162461bcd60e51b815260206004820152601d60248201527f496e76656e746f72793a206578697374696e672f6275726e74204e4654000000604482015290519081900360640190fd5b60008381526003602052604090206001600160a01b03851690558061110457600061368484612efd565b6000908152600260209081526040808320805460019081019091558083528184206001600160a01b038a168552909252909120805490910190555050505050565b7fbc197c81000000000000000000000000000000000000000000000000000000006001600160a01b03851663bc197c816136fd6122e5565b888787876040518663ffffffff1660e01b815260040180866001600160a01b03166001600160a01b03168152602001856001600160a01b03166001600160a01b03168152602001806020018060200180602001848103845287818151815260200191508051906020019060200280838360005b83811015613788578181015183820152602001613770565b50505050905001848103835286818151815260200191508051906020019060200280838360005b838110156137c75781810151838201526020016137af565b50505050905001848103825285818151815260200191508051906020019080838360005b838110156138035781810151838201526020016137eb565b50505050905090810190601f1680156138305780820380516001836020036101000a031916815260200191505b5098505050505050505050602060405180830381600087803b1580156133e057600080fd5b606081613896575060408051808201909152600181527f30000000000000000000000000000000000000000000000000000000000000006020820152610fd8565b8160005b81156138ae57600101600a8204915061389a565b60608167ffffffffffffffff811180156138c757600080fd5b506040519080825280601f01601f1916602001820160405280156138f2576020820181803683370190505b50859350905060001982015b831561395b57600a840660300160f81b8282806001900393508151811061392157fe5b60200101907effffffffffffffffffffffffffffffffffffffffffffffffffffffffffffff1916908160001a905350600a840493506138fe565b50949350505050565b826001600160a01b0316846001600160a01b0316146111045760009182526001602090815260408084206001600160a01b039687168552909152808320805483900390559290931681522080549091019055565b6000611af3836001600160a01b038416613a4d565b81546000908210613a0f5760405162461bcd60e51b8152600401808060200182810382526022815260200180613bac6022913960400191505060405180910390fd5b826000018281548110613a1e57fe5b9060005260206000200154905092915050565b60009081526001919091016020526040902054151590565b5490565b60008181526001830160205260408120548015613b095783546000198083019190810190600090879083908110613a8057fe5b9060005260206000200154905080876000018481548110613a9d57fe5b600091825260208083209091019290925582815260018981019092526040902090840190558654879080613acd57fe5b60019003818190600052602060002001600090559055866001016000878152602001908152602001600020600090556001945050505050610f04565b6000915050610f04565b828054600181600116156101000203166002900490600052602060002090601f016020900481019282601f10613b545782800160ff19823516178555613b81565b82800160010185558215613b81579182015b82811115613b81578235825591602001919060010190613b66565b50613b8d929150613b91565b5090565b611ad291905b80821115613b8d5760008155600101613b9756fe456e756d657261626c655365743a20696e646578206f7574206f6620626f756e6473416363657373436f6e74726f6c3a2073656e646572206d75737420626520616e2061646d696e20746f206772616e744f776e61626c653a206e6577206f776e657220697320746865207a65726f2061646472657373416363657373436f6e74726f6c3a2073656e646572206d75737420626520616e2061646d696e20746f207265766f6b65416363657373436f6e74726f6c3a2063616e206f6e6c792072656e6f756e636520726f6c657320666f722073656c66a264697066735822122016d3d55d72bed7c76a22c1f1de0e72433de6ef57bbbbf97ae9d8838b215e3f3164736f6c63430006080033",
  "linkReferences": {},
  "deployedLinkReferences": {}
}